:100000000C9438000C94D4000C949D000C94550072
:100010000C9455000C9455000C9455000C9455000C
:100020000C9430030C940B010C9455000C94550067
:100030000C9455000C9455000C9455000C945500EC
:100040000C9455000C9455000C9455000C945500DC
:100050000C94E5050C9455000C9455000C94D402B6
:100060000C9455000C9455000C9455000C945500BC
:1000700011241FBECFEFD0E1DEBFCDBF11E0A0E065
:10008000B1E0E8E6FEE002C005900D92A433B107AE
:10009000D9F712E0A4E3B1E001C01D92A533B10786
:1000A000E1F70E9469050C9432070C940000EF926E
:1000B000FF920F931F93DC01FB0191966D917D914F
:1000C0008D919C919497260F371F481F591F919629
:1000D0002D933D934D935C9394978281813081F46D
:1000E00091962D913D914D915C9194972F5F3F4F4B
:1000F0004F4F5F4F91962D933D934D935C93949703
:10010000E114F1040105110529F0928181E09111BA
:1001100080E0828381E080838091950190919601B7
:10012000A0919701B0919801848B958BA68BB78B8A
:100130001F910F91FF90EF9008951F920F920FB6AD
:100140000F921124EF92FF920F931F932F933F93DF
:100150004F935F936F937F938F939F93AF93BF93CF
:10016000EF93FF938FE092E06CE771E021E030E0E5
:1001700040E050E0EE24FF2487010E945700FF91E9
:10018000EF91BF91AF919F918F917F916F915F910F
:100190004F913F912F911F910F91FF90EF900F90F2
:1001A0000FBE0F901F9018951F920F920FB60F92CF
:1001B0001124EF92FF920F931F932F933F934F932E
:1001C0005F936F937F938F939F93AF93BF93EF93BF
:1001D000FF938AEE91E064E671E021E030E040E0D8
:1001E00050E0EE24FF2487010E945700FF91EF9119
:1001F000BF91AF919F918F917F916F915F914F913F
:100200003F912F911F910F91FF90EF900F900FBE94
:100210000F901F9018951F920F920FB60F921124F6
:100220002F924F925F922F933F934F935F938F93B1
:100230009F93AF93BF93CF93DF93EF93FF9320915F
:10024000990130E0C901880F991F820F931F33E095
:10025000880F991F3A95E1F7FC01E95CFE4F409148
:100260007800509179008C5C9E4FEC018B819C81D1
:10027000AD81BE8126EA32E22224539F2001429FB3
:10028000800D911DA41DB51D529F900DA11DB21D85
:10029000439F900DA11DB21D112480839183A283E1
:1002A000B3838091990190E0FC01EE0FFF1FE80FEE
:1002B000F91FB3E0EE0FFF1FBA95E1F7EC5CFE4FBC
:1002C00083819481A581B68181302AEC92072AE945
:1002D000A2072BE3B20708F457C02091990130E040
:1002E00085E290E0289FF001299FF00D389FF00DE6
:1002F0001124E056FE4F81A192A1A3A1B4A10196C1
:10030000A11DB11D81A392A3A3A3B4A380919901C0
:1003100090E0FC01EE0FFF1FE80FF91F53E0EE0F16
:10032000FF1F5A95E1F7EC5CFE4F81E080838091DE
:10033000990190E0FC01EE0FFF1FE80FF91F33E079
:10034000EE0FFF1F3A95E1F7EC5CFE4F838194813D
:10035000A581B68180509A4CAA49BB43838394837C
:10036000A583B6838091990190E0FC01EE0FFF1FF9
:10037000E80FF91FB3E0EE0FFF1FBA95E1F7EC5C51
:10038000FE4F82898F5F828B80919A0190919B01B1
:1003900023E0873E920709F08DC02091990130E05B
:1003A0008091990190E0FC01EE0FFF1FE80FF91F0B
:1003B00053E0EE0FFF1F5A95E1F7EC5CFE4F868588
:1003C0009785A089B189F901EE0FFF1FE20FF31F96
:1003D00023E0EE0FFF1F2A95E1F7EC5CFE4F8287CA
:1003E0009387A487B5872091990130E08091990186
:1003F00090E0FC01EE0FFF1FE80FF91F53E0EE0F36
:10040000FF1F5A95E1F7EC5CFE4F83819481A58133
:10041000B681F901EE0FFF1FE20FF31F53E0EE0F5D
:10042000FF1F5A95E1F7EC5CFE4F86879787A08BFC
:10043000B18B8091990190E02091990130E0F90110
:10044000EE0FFF1FE20FF31FB3E0EE0FFF1FBA9591
:10045000E1F7EC5CFE4F2289FC01EE0FFF1FE80F75
:10046000F91F53E0EE0FFF1F5A95E1F7EC5CFE4FCA
:10047000238B8091990190E0FC01EE0FFF1FE80FA4
:10048000F91F33E0EE0FFF1F3A95E1F7EC5CFE4FEA
:10049000128A8091990190E0FC01EE0FFF1FE80F96
:1004A000F91F83E0EE0FFF1F8A95E1F7EC5CFE4F2A
:1004B00081E08187809199018F5F8093990180917C
:1004C000990181708093990180919901882349F461
:1004D00080919A0190919B01019690939B0180934A
:1004E0009A0180919A0190919B0123E0883E9207A6
:1004F00020F010929B0110929A0180919401882320
:1005000099F48091950190919601A0919701B091F5
:1005100098010196A11DB11D8093950190939601BC
:10052000A0939701B09398018091950190919601C5
:10053000A0919701B091980183709070A070B070F5
:1005400083309105A105B10531F42091940181E03A
:1005500090E0222311F080E090E08093940180915C
:100560007C00887F80937C0090917C008091990131
:10057000892B80937C0080917A00806480937A003C
:10058000FF91EF91DF91CF91BF91AF919F918F91AB
:100590005F914F913F912F915F904F902F900F90CF
:1005A0000FBE0F901F9018951F920F920FB60F92CB
:1005B00011240F931F932F933F934F935F936F9348
:1005C0007F938F939F93AF93BF93CF93DF93EF93DB
:1005D000FF938091C100877E8093C10080917A0053
:1005E0008F7780937A00C0E0D0E005E210E0C09FF2
:1005F000C001C19F900DD09F900D11248196BC0128
:100600006050704080569E4F44E050E00E941A07B0
:100610002196C430D10559F72F9A8091C100886185
:100620008093C10080917A00806C80937A0080E092
:1006300091E00E940F06FF91EF91DF91CF91BF9162
:10064000AF919F918F917F916F915F914F913F916A
:100650002F911F910F910F900FBE0F901F90189523
:100660001F920F920FB60F9211240F931F932F9387
:100670003F934F935F936F937F938F939F93AF932A
:10068000BF93CF93DF93EF93FF93C0E0D0E005E2F9
:1006900010E0C09FC001C19F900DD09F900D11240C
:1006A0008196BC016050704080569E4F44E050E0FF
:1006B0000E941A072196C430D10559F78FE091E0C6
:1006C0000E940F06FF91EF91DF91CF91BF91AF9103
:1006D0009F918F917F916F915F914F913F912F915A
:1006E0001F910F910F900FBE0F901F901895F894C7
:1006F000A89584B7877F84BFE0E6F0E080818861B9
:100700008083108208952FE088E190E00FB6F8947E
:10071000A895809360000FBE20936000E0E6F0E0B3
:10072000808180648083089580EA91E060E070E0D9
:1007300044E950E00E940A0760EC72E180E090E03A
:100740000E94830588EE93E020E931E0F9013197BA
:10075000F1F70197D9F7279A8BB18C608BB98AE0B2
:100760008093690083E08DBB5C9A80916D0080610D
:1007700080936D0080916800846080936800809110
:100780007F00836080937F0080B78B6480BF8091FF
:10079000B00082608093B000279A8091B10085609C
:1007A0008093B1008091700082608093700083E636
:1007B0008093B30080917E008F6380937E00809150
:1007C0007C00806C80937C0080917A0083608093B1
:1007D0007A0080917A00806C80937A0078940895F2
:1007E0002F923F924F925F926F927F928F929F9241
:1007F000AF92BF92CF92DF92EF92FF920F931F932F
:10080000DF93CF93CDB7DEB7EC970FB6F894DEBF8A
:100810000FBECDBF882E3B01FA01882321F0813025
:1008200009F08AC01FC02F9A88EC90E020E931E0DF
:10083000D9011197F1F70197D9F72F98F894D301BF
:100840009196ED90FD900D911C919497A488B58898
:10085000C688D7887894CE01019668E171E00E943D
:10086000030770C0F89486859785A089B189228591
:10087000338544855585821B930BA40BB50B638987
:1008800078947C018D01B7FF07C0EE24FF24870117
:10089000E81AF90A0A0B1B0BAA24BB24650127E9F5
:1008A00031EF40E050E02224319F2001209FA00C36
:1008B000B11CC41CD51C309FB00CC11CD21C219F84
:1008C000B00CC11CD21C1124F2E1D694C794B79489
:1008D000A794FA95D1F7262F30E0B7FD12C080E13A
:1008E0009EE0289F7001299FF00C389FF00C112486
:1008F0000027F7FC0095102FEA0CFB1C0C1D1D1D9A
:1009000011C080E19EE0289F7001299FF00C389F64
:10091000F00C11240027F7FC0095102FEA18FB08B3
:100920000C091D09CE0101966DE171E00E940307DB
:10093000AA24BB24650106C0AA24BB246501EE24B9
:10094000FF248701CE010596B3010E940307CE0163
:10095000859662E271E00E940307EEE29E2E7AE045
:10096000472E512C612C712C61E0262E312C2C0E3F
:100970003D1E290C311CC801B701A30192010E9440
:10098000C606605DF10160839A9479018A01E114E1
:10099000F1040105110541F7882049F5A114B104BE
:1009A000C104D10421F1CE01C09662E271E00E943F
:1009B000030719E32E010894411C511C5AE0652ECF
:1009C000712C812C912C7201E10EF11CC601B50134
:1009D000A40193010E94C606605DD7016C9311507B
:1009E00059016A01A114B104C104D10461F7CE0117
:1009F00001960E940F068FE291E00E940F06EC968E
:100A00000FB6F894DEBF0FBECDBFCF91DF911F911F
:100A10000F91FF90EF90DF90CF90BF90AF909F909D
:100A20008F907F906F905F904F903F902F900895A0
:100A3000EF92FF920F931F93CF93DF9300E010E0AC
:100A400025E2E22EF12CE801CC0FDD1FC00FD11FF3
:100A500083E0CC0FDD1F8A95E1F7CC5CDE4F888107
:100A6000813071F40E9DB0010F9D700D1E9D700DB3
:100A7000112460567E4F80E0AE010E94F003188280
:100A8000E801CC0FDD1FC00FD11FA3E0CC0FDD1F8D
:100A9000AA95E1F7CC5CDE4F8985813069F40E9D23
:100AA000B0010F9D700D1E9D700D112460567E4F7C
:100AB000AE010E94F00319860F5F1F4F043011052D
:100AC00011F6A895DF91CF911F910F91FF90EF90B4
:100AD00008950E9477030E9494032F9A80E197E281
:100AE00020E931E0F9013197F1F70197D9F72F9813
:100AF0000E94DC0581E391E00E940F060E948303BF
:100B00000E941805FDCFEF92FF920F931F937B0178
:100B10008C0122E030E040E050E00E94E806205CDA
:100B20003D4B404F5F4FCA01B901A80197010E9498
:100B3000E806DA01C9010197A109B109892F9A2FA5
:100B4000AB2FBB27A7FDBA958093C50021502093FA
:100B5000C400E1ECF0E08081806180838081886066
:100B600080838081806880831F910F91FF90EF9038
:100B700008959091C00095FFFCCF8093C600089522
:100B800080E090E0089580919E0190919F012091D6
:100B90009C0130919D012817390751F08C5C9D4FC5
:100BA000FC01208110929F0110929E0130E002C052
:100BB0002FEF3FEFC901089580919E0190919F0111
:100BC00090939D0180939C0108951F920F920FB600
:100BD0000F9211242F938F939F93EF93FF93209164
:100BE000C60080919E0190919F01009759F0E0917D
:100BF0009C01F0919D01EC5CFD4F208310929D01C2
:100C000010929C01FF91EF919F918F912F910F90E6
:100C10000FBE0F901F9018950E94B9050895EF928E
:100C2000FF92CF93DF93E82EE7017E01F92EE701D3
:100C300002C00E94B90589918823D9F7DF91CF912D
:100C4000FF90EF9008958F929F92AF92BF92CF92B4
:100C5000DF92EF92FF920F931F93DF93CF93CDB765
:100C6000DEB7A0970FB6F894DEBF0FBECDBF490127
:100C70005A01611571058105910521F480E30E94F7
:100C8000B9053CC06E010894C11CD11CEE24FF24A0
:100C90008701A50194010E94C606F60161936F01C8
:100CA0000894E11CF11C011D111DB901CA01611557
:100CB00071058105910569F7D801C7010197A1095F
:100CC000B1096E010894C11CD11CC80ED91E11C0F7
:100CD000F60180818A3010F4805D01C0895C0E9439
:100CE000B9050894E108F108010911090894C1083F
:100CF000D108E114F1040105110551F7A0960FB6D2
:100D0000F894DEBF0FBECDBFCF91DF911F910F9141
:100D1000FF90EF90DF90CF90BF90AF909F908F901B
:100D20000895EF92FF920F931F937B018C0197FF21
:100D30000BC08DE20E94B90510950095F094E094E7
:100D4000E11CF11C011D111DC801B7012AE030E0B2
:100D500040E050E00E9423061F910F91FF90EF901A
:100D6000089520E130E040E050E00E94230608951D
:100D700028E030E040E050E00E942306089522E0A1
:100D800030E040E050E00E9423060895A1E21A2ED0
:100D9000AA1BBB1BFD010DC0AA1FBB1FEE1FFF1F1F
:100DA000A217B307E407F50720F0A21BB30BE40B6F
:100DB000F50B661F771F881F991F1A9469F76095B6
:100DC0007095809590959B01AC01BD01CF01089570
:100DD00097FB092E05260ED057FD04D0D7DF0AD089
:100DE000001C38F450954095309521953F4F4F4F5A
:100DF0005F4F0895F6F790958095709561957F4FB8
:100E00008F4F9F4F0895FB01DC0101900D92002050
:100E1000E1F70895DC01CB01FC01F999FECF06C092
:100E2000F2BDE1BDF89A319600B40D9241505040A8
:100E3000B8F70895DC01CB0103C02D910E9425076E
:100E400041505040D0F70895262FF999FECF1FBA90
:100E500092BD81BD20BD0FB6F894FA9AF99A0FBEE3
:080E600001960895F894FFCFFC
:100E68006D73672042524F574E2D4F55540A006DEF
:100E78007367205744540A00706C732000707772AF
:100E880020003A303030303030303030300A000D09
:040E9800000A00004C
:00000001FF
